:020000040000FA
:020000000528D1
:040002000034003492
:06000A00831203138801BC
:1000100083160313880183120313860183160317C3
:100020008801831603138901831203130230A00091
:100030000430A100203084000130831203138900B2
:1000400000083D208312031388002E200310831222
:100050000313890D840A091D20281A28FF30B000D7
:100060000430B100000000000000000000000000AB
:10007000B10B3228B00B302808008207BF34863419
:10008000DB34CF34E634ED34FD348734FF34E734E9
:02400E00F4209C
:02401000FF3F70
:00000001FF
