:020000040000FA
:020000000528D1
:040002000034003492
:020008004C2882
:06000A008316031387308A
:10001000810083160317890183160313F0308600CD
:100020008312031380308700831603138701831222
:1000300003138B178B160B110B178B10A0010630B7
:10004000A1008312031321088600061E3828A00A87
:10005000861E3828A00A061F3828A00A861F3828BE
:10006000A00A0314A10D0C30200203191E28212818
:10007000582020083F208312031387001E28820780
:100080008634A7348734E334DB34ED34FF34BF34B3
:10009000CF34FD34E734F634A300030EA4000B196B
:1000A0005620240E8300A30E230E09000B11080016
:1000B000831203133C308100831203130B1D5C2851
:0200C000080036
:02400E00F4209C
:02401000FF3F70
:00000001FF
