:020000040000FA
:020000000528D1
:040002000034003492
:0200080043288B
:06000A00831603178901B3
:10001000831603137730810083160313F0308600B4
:1000200087019500960083120313860186088312C8
:100030000313FF3088008316031388018312031310
:100040008901091483160317880103138316031308
:100050008901831203138B01C8308B040000000058
:1000600000002E2882078634E6348734E334DB34FC
:10007000ED34FF34BF34CF34FD34E734F634F73495
:10008000FC34B934DE34A300030EA4000B19602045
:100090000B184F20240E8300A30E230E0900831299
:1000A000031386080B108B1183120313B4308100E5
:1000B000831603138112831203130B118B1608008E
:1000C000831603138116831203130B118B127120F5
:1000D0008312031386018608831203130B108B15FA
:1000E00008002008A200A0010E30A1008312031313
:1000F00021088600061E8D28A00A861E8D28A00ACB
:10010000061F8D28A00A861F8D28A00A0314A10DA2
:1001100010302002031908007628200832208800B9
:020120000800D5
:02400E00F4209C
:02401000FF3F70
:00000001FF
