:020000040000FA
:020000000528D1
:040002000034003492
:02000800772857
:06000A00831603178901B3
:10001000831603137730810083160313F0308600B4
:1000200087019500960083120313860186088312C8
:100030000313FF3088008316031388018312031310
:100040008901091483160317880103138316031308
:100050008901831203138501831603178801831610
:1000600003138501831203138B01C8308B04A50190
:10007000C201B301831603131930990083160313C9
:100080002430980083120313903098000000000081
:100090000000462882078634E6348734E334DB34B4
:1000A000ED34FF34BF34CF34FD34E734F634F73465
:1000B000FC34B934DE348207BF348634DB34CF34C9
:1000C000E634ED34FD348734FF34E73482070134FD
:1000D00004340734FF340234053408340034033464
:1000E00006340934FF341134123413341434A300A9
:1000F000030EA4000B1994200B188320240E8300F8
:10010000A30E230E09008312031386080B108B1114
:1001100083120313B43081008316031381128312F8
:1001200003130B118B160800831603138116831219
:1001300003130B118B12A52083120313860186086B
:10014000831203130B108B1508002008A200A001D6
:100150000E30A1008312031321088600061EC12859
:10016000A00A861EC128A00A061FC128A00A861F51
:10017000C128A00A0314A10D1030200203190800A1
:10018000AA2820084A2088002008033C0319472990
:1001900020080B3C03194C2920086620B10034309C
:1001A0003307840000083102031DDC28B30A33083A
:1001B000023C0319DE280800B30108002508013CB1
:1001C000031DE3284129831203130930C0000230C4
:1001D000C1003630C3000221C30BEB284008003CAD
:1001E000031D1B294108003C031D1F298312031313
:1001F00088010130A5008312031305148312031331
:10020000091408008312031309148312031340080E
:100210005B20880025218312031309108312031326
:1002200089148312031341085B208800252183125F
:1002300003138910080083120313C003E9288312F3
:1002400003130930C000C103E9280130C20083163E
:1002500003138112831203130B118B1683120313E2
:10026000DC308100831203130B1D32290B11C20BEA
:100270002E29831603138116831203130B118B127D
:100280000800A50183120313051085100800250836
:10029000013C031985140800831203130515B201EC
:1002A000831203138C1E5029831203131A08B00003
:1002B00030303002B0003430320784003008800023
:1002C0005B208800B20A3208023C031D50298312C9
:0602D000031305110800F4
:02400E00F4209C
:02401000FF3F70
:00000001FF
