:020000040000FA
:020000000528D1
:040002000034003492
:0200080050287E
:06000A00831603178901B3
:1000100083160313F730810083160313F030860034
:1000200087019600831203138601860880308700BB
:10003000831203138B01C8308B04831203138801CE
:100040008316031388018312031389018316031790
:100050008801031383160313013089002608013C2D
:10006000031D36288312031388142E2883120313CA
:1000700009183B282E282508013C031D2E28013095
:10008000A60088142E2882078634E6348734F63496
:10009000DB34ED34FF34BF34CF34FD34E734F63491
:1000A000A300030EA4000B196D200B185C20240E76
:1000B0008300A30E230E09008312031386080B107E
:1000C0008B11831203133C308100831603138112BA
:1000D000831203130B118B1608008316031381166A
:1000E000831203130B118B127E20831203138601DC
:1000F0008608831203130B108B1508002008A2003A
:10010000A0010E30A1008312031321088600061EF1
:100110009A28A00A861E9A28A00A061F9A28A00AD2
:10012000861F9A28A00A0314A10D0C30200203197F
:100130000800832820084320831203138700270820
:100140008207A328A9282008003C031DAF28A70A7E
:1001500008002008013C031DAF28A70AB128A70109
:1001600008000130A5020319BB28831203130814E9
:100170000130A500AF288312031308108810A601D0
:04018000A5010800CD
:02400E00F4209C
:02401000FF3F70
:00000001FF
