:020000040000FA
:020000000528D1
:040002000034003492
:02000800882846
:06000A00831603178901B3
:10001000831603137730810083160313F0308600B4
:1000200087019500960083120313860186088312C8
:100030000313FF3088008316031388018312031310
:100040008901091483160317880103138316031308
:100050008901831203138501831603178801831610
:1000600003138501831203138B01C8308B04A50190
:10007000C201B3018316031398128312031398135A
:10008000D5218312031385158316031319309900A4
:1000900083160313243098008312031390309800C2
:1000A0008316031320308C00831203130515000000
:1000B00000000000572882078634E6348734E33492
:1000C000DB34ED34FF34BF34CF34FD34E734F63461
:1000D000F734FC34B934DE348207BF348634DB3481
:1000E000CF34E634ED34FD348734FF34E73482070F
:1000F000013404340734FF34023405340834003446
:10010000033406340934FF341134123413341434F4
:10011000A300030EA400831203138C1A9A208312E7
:1001200003130B19C1200B18B020240E8300A30E5B
:10013000230E0900831203131A08B0003030300276
:10014000B0006C2088003008013C03191D213008E4
:10015000023C03197C213008043C0319C221080029
:100160008312031386080B108B1183120313B43010
:100170008100831603138112831203130B118B1654
:100180000800831603138116831203130B118B12BD
:10019000D2208312031386018608831203130B10E7
:1001A0008B1508002008A200A0010E30A1008312C8
:1001B000031321088600061EEE28A00A861EEE28DC
:1001C000A00A061FEE28A00A861FEE28A00A031424
:1001D000A10D1030200203190800D72820085B2049
:1001E00088002008033C0319822920080B3C0319CE
:1001F000872920087720B100831203133308831264
:1002000003178D00831603178C130C148312031726
:100210000C0883120313B50035083102031D16299B
:10022000B30A3308043C031918290800B301080075
:100230002508013C031D1D297C29CB2183120313B2
:100240000530C0000130C1003630C3003D21C30B72
:1002500026294008003C031D56294108003C031D87
:100260005A298312031388010130A5008312031356
:1002700005148312031309140800831203130914CD
:100280008312031340086C2088006021831203133B
:1002900009108312031389148312031341086C207D
:1002A000880060218312031389100800831203134E
:1002B000C0032429831203130930C000C103242979
:1002C0000130C200831603138112831203130B1132
:1002D0008B1683120313DC308100831203130B1D72
:1002E0006D290B11C20B6929831603138116831222
:1002F00003130B118B120800A501831203130510C1
:10030000851008002508013C031985140800831294
:1003100003130515B201831203138C1E8B2983125C
:1003200003131A08B00030303002B00083120313F8
:100330003208831203178D008312031330088312CF
:1003400003178C00831603178C130C158B13553071
:100350008D00AA308D008C148C18AC298B170C11D1
:100360008312031330086C20831203138800831256
:100370000313B20A3208043C031D8B2983120313B2
:10038000051108002508013C0319C729C929413076
:10039000CD294230CD294330CD29831203130C1EC1
:1003A000CF29831203139900080083120313053029
:1003B000B600C830B700FA30B80000000000B80B33
:0C03C000DD29B70BDB29B60BD92908009A
:02400E00F4209C
:02401000FF3F70
:00000001FF
