:020000040000FA
:020000000528D1
:040002000034003492
:020008004D2881
:06000A00831603178901B3
:10001000831603137730810083160313F0308600B4
:1000200087019500960083120313860186088312C8
:100030000313FF3088008316031388018312031310
:100040008901091483160317880103138316031308
:100050008901831203138501831603178801831610
:1000600003138501831203138B01C8308B04A50190
:10007000000000000000382882078634E634873408
:10008000E334DB34ED34FF34BF34CF34FD34E734B4
:10009000F634F734FC34B934DE34A300030EA40084
:1000A0000B196A200B185920240E8300A30E230E6F
:1000B00009008312031386080B108B11831203139C
:1000C000B4308100831603138112831203130B11C2
:1000D0008B160800831603138116831203130B116A
:1000E0008B127B208312031386018608831203136D
:1000F0000B108B1508002008A200A0010E30A100F3
:100100008312031321088600061E9728A00A861E64
:100110009728A00A061F9728A00A861F9728A00ADA
:100120000314A10D103020020319080080282008B4
:100130003C2088002008013C03199F28080025085E
:10014000013C031DA428AA280130A5008312031333
:0E01500005140800A501831203130510080012
:02400E00F4209C
:02401000FF3F70
:00000001FF
