:020000040000FA
:020000000528D1
:040002000034003492
:02000800782856
:06000A00831603178901B3
:10001000831603137730810083160313F0308600B4
:1000200087019500960083120313860186088312C8
:100030000313FF3088008316031388018312031310
:100040008901091483160317880103138316031308
:100050008901831203138501831603178801831610
:1000600003138501831203138B01C8308B04A50190
:10007000A601A801B3018316031319309900831652
:10008000031324309800831203139030980000006B
:1000900000000000472882078634E6348734E334C2
:1000A000DB34ED34FF34BF34CF34FD34E734F63481
:1000B000F734FC34B934DE348207BF348634DB34A1
:1000C000CF34E634ED34FD348734FF34E73482072F
:1000D000013404340734FF34023405340834003466
:1000E000033406340934FF34113412341334143415
:1000F000A300030EA4000B1995200B188420240ED6
:100100008300A30E230E09008312031386080B102D
:100110008B1183120313B4308100831603138112F1
:10012000831203130B118B16080083160313811619
:10013000831203130B118B12A62083120313860163
:100140008608831203130B108B1508002008A200E9
:10015000A0010E30A1008312031321088600061EA1
:10016000C228A00A861EC228A00A061FC228A00A0A
:10017000861FC228A00A0314A10D10302002031903
:100180000800AB2820084B2088002008033C0319F6
:100190001A2920080B3C03191F2920086720B100E9
:1001A00034303307840000083102031DDD28B30A10
:1001B0003308023C0319DF280800B30108002508B2
:1001C000013C031DE42814290130A6000930A700D2
:1001D00027085C208800F820A70BE8288312031367
:1001E0008801A6010130A50083120313051408003D
:1001F0001430A800831603138112831203130B110A
:100200008B16831203133C308100831203130B1DE2
:1002100005290B11A80B01298316031381168312DC
:1002200003130B118B120800A50183120313051091
:10023000851008002508013C031985140800831265
:1002400003130515B201831203138C1E2329831295
:1002500003131A08B00030303002B00034303207D7
:100260008400300880005C208800B20A3208023C1A
:0C027000031D232983120313051108004D
:02400E00F4209C
:02401000FF3F70
:00000001FF
