:020000040000FA
:020000000528D1
:040002000034003492
:020008005A2874
:06000A00831603178901B3
:10001000831603137730810083160313F0308600B4
:1000200087019500960083120313860186088312C8
:100030000313FF3088008316031388018312031310
:100040008901091483160317880103138316031308
:100050008901831203138501831603178801831610
:1000600003138501831203138B01C8308B04A50190
:10007000A601B0010000000000003A288207863483
:10008000E6348734E334DB34ED34FF34BF34CF342B
:10009000FD34E734F634F734FC34B934DE34820707
:1000A000BF348634DB34CF34E634ED34FD3487346A
:1000B000FF34E734A300030EA4000B1977200B18BC
:1000C0006620240E8300A30E230E0900831203135F
:1000D00086080B108B1183120313B4308100831632
:1000E00003138112831203130B118B16080083165E
:1000F00003138116831203130B118B1288208312B2
:10010000031386018608831203130B108B15080056
:100110002008A200A0010E30A100831203132108C1
:100120008600061EA428A00A861EA428A00A061F70
:10013000A428A00A861FA428A00A0314A10D103029
:100140002002031908008D2820083E20880020087E
:10015000013C0319AC2808002508013C031DB12807
:10016000E1280130A6000930A70027084F208800A9
:10017000C520A70BB528831203138801A6010130FF
:10018000A50083120313051408001430B000831671
:1001900003138112831203130B118B1683120313A3
:1001A0003C308100831203130B1DD2280B11B00BBE
:1001B000CE28831603138116831203130B118B129F
:0C01C0000800A5018312031305100800BD
:02400E00F4209C
:02401000FF3F70
:00000001FF
