:020000040000FA
:020000000528D1
:040002000034003492
:020008002E28A0
:06000A00831603178901B3
:1000100083160313F730810083160313F030860034
:1000200087019600831203138601860880308700BB
:10003000831203138B01C8308B0400000000000002
:100040001D2882078634A7348734F634DB34ED3438
:10005000FF34BF34CF34FD34E734F634A300030E4D
:10006000A4000B194B200B183A20240E8300A30E7A
:10007000230E09008312031386080B108B118312C1
:1000800003133C3081008316031381128312031380
:100090000B118B16080083160313811683120313AA
:1000A0000B118B125C2083120313860186088312C6
:1000B00003130B108B1508002008A200A0010E30BE
:1000C000A1008312031321088600061E7828A00AC7
:1000D000861E7828A00A061F7828A00A861F78287E
:1000E000A00A0314A10D0C30200203190800612896
:0800F000200821208700080010
:02400E00F4209C
:02401000FF3F70
:00000001FF
