:020000040000FA
:020000000528D1
:040002000034003492
:0200080042288C
:06000A008316031387308A
:100010008100860183120313860183160317890169
:1000200083160313F0308600831203138030870099
:1000300083160313870183120313850183160317A5
:100040008801831603138501831203138B178B1604
:100050000B110B178B150B108B1083160313F0303D
:100060009600000000000000312882078634A73483
:100070008734E334DB34ED34FF34BF34CF34FD3424
:10008000E734F634A300030EA4000B194E200B181E
:100090005920240E8300A30E230E09000B11080023
:1000A00083120313D8308100831203130B1D5428CD
:1000B000080083120313A0010630A100831203136A
:1000C00021088600061E7528A00A861E7528A00A2B
:1000D000061F7528A00A861F7528A00A0314A10D03
:1000E0000C302002031983285E2850202008352078
:1000F0008312031387002008083C031D83288028EF
:0C0100000130A50005140B100B110800C5
:02400E00F4209C
:02401000FF3F70
:00000001FF
