:020000040000FA
:020000000528D1
:040002000034003492
:02000800352899
:06000A00831203138601BE
:1000100083160317890183160313F03086008312B9
:10002000031380308700831603138701831603139D
:1000300087308100831203138B178B160B110B175C
:100040008B150B10831203130000000000002428FE
:1000500082078634A7348734E334DB34ED34FF344D
:10006000BF34CF34FD34E734F634A300030EA400CC
:100070000B1941280B184C28240E8300A30E230EC5
:100080000900A2010B110800D8308100FF30A20046
:100090002208031D482808004420A0010630A100C2
:1000A00021088600061E6528A00A861E6528A00A6B
:1000B000061F6528A00A861F6528A00A0314A10D43
:1000C0000C30200203196A285028200828208312A7
:0800D000031387000B10080068
:02400E00F4209C
:02401000FF3F70
:00000001FF
